:100000000C945F030C947C030C947C030C947C0391
:100010000C947C030C94B9030C947C030C947C0327
:100020000C947C030C947C030C947C030C947C0354
:100030000C947C030C947C030C947C030C947C0344
:100040000C94D9120C947C030C947C030C947C03C8
:100050000C94F9110C94B7110C947C030C947C0350
:100060000C947C030C947C030C947C030C947C0314
:100070000C947C030C947C030C947C03B306C206A2
:10008000C206C206C206C206C206C206C206C20630
:10009000C206A806C2063006BD06C206C206C206D1
:1000A000C206C206C206C206C2065106C206C20681
:1000B000C206C2068106C2067406C206C206C2068F
:1000C000C206C206C206C2064606C206C206C2066C
:1000D0006706C2065C06C206C206C206B806C206AB
:1000E000C206C206C206C206C206C206C206C206D0
:1000F000C206C206C206C2068E06C206C206C206F4
:10010000C206C206C206C206C206C206C206C206AF
:10011000C206C206C206C206C206C206C206C2069F
:10012000C206C206C206C2069B06C206C206C206B6
:10013000C206C2063B064E756D626572206F662070
:10014000506163646F7473203A2025640053636FB9
:100150007265202F6E202564202F6E204869676805
:100160002053636F7265202F6E20256400462D2D6D
:100170002D2D2D2D2D2D2D2D2D2D2D762D762D2D1D
:100180002D2D2D2D2D2D2D2D2D2D2D377C2E2E2E43
:100190002E2E2E2E2E2E2E2E2E2E7C207C2E2E2EF1
:1001A0002E2E2E2E2E2E2E2E2E2E7C7C2E462D2DBD
:1001B0002D372E462D2D2D372E7C207C2E462D2D95
:1001C0002D372E462D2D2D372E7C7C2E7C20202069
:1001D0007C2E4C2D2D2D4A2E4C2D4A2E4C2D2D2D66
:1001E0004A2E7C2020207C2E7C7C2E7C2020207C93
:1001F0002E2E2E2E2E2E2E2E2E2E2E2E2E2E2E2E1F
:100200002E7C2020207C2E7C7C2E7C2020207C2E8E
:10021000462D2D2D372E462D372E462D2D2D372EA2
:100220007C2020207C2E7C7C504C2D2D2D4A2E4C69
:100230002D2D2D4A2E4C2D4A2E4C2D2D2D4A2E4C37
:100240002D2D2D4A507C7C2E2E2E2E2E2E2E2E2EF7
:100250002E2E2E2E2E2E2E2E2E2E2E2E2E2E2E2EBE
:100260002E2E2E2E7C7C2E462D2D2D372E46372ED3
:10027000462D2D2D2D2D2D2D372E46372E462D2D4D
:100280002D372E7C7C2E4C2D2D2D4A2E7C7C2E4CF9
:100290002D2D3720462D2D4A2E7C7C2E4C2D2D2D9C
:1002A0004A2E7C7C2E2E2E2E2E2E2E7C7C2E2E2E1A
:1002B0002E7C207C2E2E2E2E7C7C2E2E2E2E2E2E34
:1002C0002E7C4C2D2D2D2D2D372E7C4C2D2D372079
:1002D0007C207C20462D2D4A7C2E462D2D2D2D2D2B
:1002E0004A2020202020207C2E7C462D2D4A204C88
:1002F0002D4A204C2D2D377C2E7C202020202020A4
:100300002020202020207C2E7C7C202020202020CB
:1003100020202020207C7C2E7C2020202020202DAE
:100320002D2D2D2D2D4A2E4C4A20462D2D202020BE
:100330002D2D37204C4A2E4C2D2D2D2D2D2D2020AE
:1003400020202020202E2020207C20202020202043
:10035000207C2020202E202020202020202D2D2D0C
:100360002D2D2D372E4637204C2D2D2D2D2D2D2D7D
:100370004A2046372E462D2D2D2D2D2D2020202094
:1003800020207C2E7C7C202020202020202020204B
:10039000207C7C2E7C20202020202020202020203B
:1003A000207C2E7C7C20462D2D2D2D2D2D2D372093
:1003B0007C7C2E7C202020202020462D2D2D2D2DB4
:1003C0004A2E4C4A204C2D2D3720462D2D4A204CAC
:1003D0004A2E4C2D2D2D2D2D377C2E2E2E2E2E2EB1
:1003E0002E2E2E2E2E2E2E7C207C2E2E2E2E2E2E9F
:1003F0002E2E2E2E2E2E2E7C7C2E462D2D2D372E63
:10040000462D2D2D372E7C207C2E462D2D2D372E42
:10041000462D2D2D372E7C7C2E4C2D37207C2E4CBE
:100420002D2D2D4A2E4C2D4A2E4C2D2D2D4A2E7C15
:1004300020462D4A2E7C7C502E2E7C207C2E2E2E6B
:100440002E2E2E2E2E202E2E2E2E2E2E2E2E7C209A
:100450007C2E2E507C3E2D372E7C207C2E46372E37
:10046000462D2D2D2D2D2D2D372E46372E7C207CE3
:100470002E462D3C3E2D4A2E4C2D4A2E7C7C2E4C59
:100480002D2D3720462D2D4A2E7C7C2E4C2D4A2E8C
:100490004C2D3C7C2E2E2E2E2E2E2E7C7C2E2E2E67
:1004A0002E7C207C2E2E2E2E7C7C2E2E2E2E2E2E42
:1004B0002E7C7C2E462D2D2D2D2D4A4C2D2D372E6C
:1004C0007C207C2E462D2D4A4C2D2D2D2D2D372E6A
:1004D0007C7C2E4C2D2D2D2D2D2D2D2D2D4A2E4C51
:1004E0002D4A2E4C2D2D2D2D2D2D2D2D2D4A2E7C92
:1004F0007C2E2E2E2E2E2E2E2E2E2E2E2E2E2E2ECE
:100500002E2E2E2E2E2E2E2E2E2E2E2E2E2E7C4C9F
:100510002D2D2D2D2D2D2D2D2D2D2D2D2D2D2D2D0B
:100520002D2D2D2D2D2D2D2D2D2D2D2D2D4A0050E8
:1005300072657373206120627574746F6E20746FBE
:1005400020737461727420616761696E0047414D68
:1005500045204F56455200507573682061206275E2
:1005600074746F6E206F72206B657920746F2063D6
:100570006F6E74696E7565004C6576656C20636F8F
:100580006D706C6574650043535345323031302FC4
:10059000373230312070726F6A656374206279205F
:1005A0004A6F656C20466F73746572202D20343558
:1005B000383230333834005061632D4D616E002A7B
:1005C00006270623061F061B06170613060F060B33
:1005D0000607069906950691068D06890685068109
:1005E000067D067A06760672066E0669066506615F
:1005F000065D065806540650064B06470642063D61
:1006000006380633062E066492927D6C92926D80B7
:100610009EA0C17C92924DE4A2A29D182848FF445E
:1006200092926D468A926342FE037C92A27D868AF4
:1006300092A2C3E0100E10E1C6281028C7FC021CCD
:1006400002FDF8040204F9FC0202FD8080FE8081B4
:100650006492924DFE9098677C828A7C03FE909013
:10066000617C82827DFE2010FFFE403040FFFE0252
:100670000203FE1028C7040202FD82FE83FE101052
:10068000FF7C82925DFE909081FE929283FE828238
:100690007D7C828245FE92926D7E90907F1B5B3FB7
:1006A00032356C001B5B25646D001B5B324A001BFE
:1006B0005B306D001B5B25643B2564480000112402
:1006C0001FBECFEFD8E0DEBFCDBF11E0A0E0B1E0AC
:1006D000E2E4F1E302C005900D92AE38B107D9F71C
:1006E00024E0AEE8B1E001C01D92A73EB207E1F7F9
:1006F0000E94D00F0C949F180C940000E8E6F0E0E4
:10070000808182608083D99AECE6F0E080818F60FE
:10071000808310928E01089580918E0118163CF509
:1007200080918F016FB7F89490918E019230B4F060
:1007300021E030E091E0F901E157FE4F4081F901FD
:10074000E257FE4F40839F5F292F30E040918E019A
:10075000042E000C550B241735076CF390918E0175
:10076000915090938E0166231CF4789408958FEF36
:1007700008951F920F920FB60F9211242F933F935B
:100780004F935F936F937F938F939F93EF93FF9319
:1007900043B14F7080E090E0642F70E020918E01B3
:1007A000243004F59B01082E02C0359527950A9444
:1007B000E2F720FF17C02091930130E0082E02C01D
:1007C000359527950A94E2F720FD0CC0E0918E0143
:1007D00021E02E0F20938E010E2E000CFF0BE1570F
:1007E000FE4F8083019684309105C1F640939301BA
:1007F000FF91EF919F918F917F916F915F914F91B9
:100800003F912F910F900FBE0F901F9018956F3052
:1008100039F494EF980F81E0973060F080E008950C
:100820006E3039F492EF980F81E0933018F080E049
:10083000089580E0089580911101813049F028F0F9
:10084000823051F0833061F00EC0109210010BC065
:1008500081E08093100107C083E08093100103C002
:1008600087E0809310018091100188B9089570E0AD
:100870006F5F7F4F90E001960E947A1281E20E94A2
:100880009D12E091B603F0E0EE0FFF1FEA58FE4F15
:1008900081818F9380818F938CE291E09F938F93DE
:1008A0000E9412150E948B120F900F900F900F90C4
:1008B00008950F931F93CF93DF93182F062FC42F04
:1008C000D0E0862F90E0BE016F5F7F4F01960E94BF
:1008D0007A12E12FF0E0EC5FFE4F80810E949D12C2
:1008E000FE01EE0FFF1FEE0FFF1FEB5EFD4F80813D
:1008F0009181A281B381002E04C0B695A7959795EA
:1009000087950A94D2F780FF05C08EE290E00E949E
:100910004E151CC0CC0FDD1FCC0FDD1FC756DE4FA0
:1009200088819981AA81BB8104C0B695A7959795C6
:1009300087950A95D2F780FF05C080E590E00E9478
:100940004E1504C080E290E00E944E150E948B126A
:10095000DF91CF911F910F9108951F93CF93DF9354
:10096000182FC62FD0E090E0BE016F5F7F4F019639
:100970000E947A12FE01EE0FFF1FEE0FFF1FEB5ECB
:10098000FD4F80819181A281B381012E04C0B69573
:10099000A795979587950A94D2F780FF05C08EE2B8
:1009A00090E00E944E151CC0CC0FDD1FCC0FDD1F48
:1009B000C756DE4F88819981AA81BB8104C0B69554
:1009C000A795979587951A95D2F780FF05C080E582
:1009D00090E00E944E1504C080E290E00E944E1507
:1009E000DF91CF911F9108950F931F93CF93DF93C2
:1009F00064E170E082E390E00E947A120E940610A7
:100A0000C62FD72F182F092F0E94FD0F0F931F936A
:100A1000DF93CF932FE231E03F932F939F938F93F8
:100A20007F936F9384E391E09F938F938FE38F93F2
:100A300080E88F931F921F928DE491E09F938F9394
:100A40000E9428158DB79EB742960FB6F8949EBFA8
:100A50000FBE8DBFDF91CF911F910F910895CF925F
:100A6000DF92EF92FF92413091F028F0423049F04E
:100A7000433099F05EC0882309F45DC020E09FEF09
:100A800011C08E3109F459C020E091E00BC06623FB
:100A900009F455C02FEF90E005C06E3109F451C044
:100AA00021E090E0620F890F90919E02891305C0AA
:100AB00090919D02691709F446C0A9E9B2E0E5E901
:100AC000F2E090E02D91821304C02081621709F4B6
:100AD0003CC09F5F31969430A9F7462F50E0282FF5
:100AE00030E0FA01EE0FFF1FEE0FFF1FEB5EFD4F30
:100AF000C080D180E280F380082E04C0F694E79491
:100B0000D794C7940A94D2F7C0FC21C09FE1949F68
:100B1000F001959FF00D1124E20FF31FE359FE4FF2
:100B2000E491E032C1F0EE32B1F0E035A1F08EEFA9
:100B300017C08EEF15C08EEF13C08EEF11C08EEF71
:100B40000FC08EEF0DC08DEF0BC0892F09C08CEF49
:100B500007C08FEF05C00E9407048111FACF8BEF09
:100B6000FF90EF90DF90CF900895CF92DF92EF92B9
:100B7000FF920F931F93CF93DF93082FF62E0E94BF
:100B80000704E82EC0E0D0E010E0CC24C394D12CC0
:100B90004C2F6F2D802F0E942F058E3F4CF4C601E5
:100BA0000C2E02C0880F991F0A94E2F7182B0CC074
:100BB000EE2051F08F3F41F4C6010C2E02C0880F89
:100BC000991F0A94E2F7182B2196C430D10501F73A
:100BD000812FDF91CF911F910F91FF90EF90DF90C8
:100BE000CF9008952F923F924F925F926F927F9293
:100BF0008F929F92AF92BF92CF92DF92EF92FF922D
:100C00000F931F93CF93DF930E9494120E948B1235
:100C10000E94AA1261E070E081E090E00E947A12E6
:100C20000F2EFCE86F2EF1E07F2EF02D0F2EF2E656
:100C30002F2EF1E03F2EF02D0F2EFCE24F2EF1E093
:100C40005F2EF02DB6C0F601849190E0FC01B097C4
:100C5000ED35F10508F096C0E25CFF4F0C942C14C2
:100C60009F928F925F924F920E9412150F900F9059
:100C70000F900F908BC0BF92AF925F924F920E94E5
:100C800012150F900F900F900F9080C0DF93CF93AD
:100C90005F924F920E9412150F900F900F900F903D
:100CA00075C01F930F935F924F920E9412150F9081
:100CB0000F900F900F906AC0FF92EF925F924F9249
:100CC0000E9412150F900F900F900F905FC08EE44E
:100CD00091E09F938F935F924F920E9412150F9015
:100CE0000F900F900F9052C082E591E09F938F93E9
:100CF0005F924F920E9412150F900F900F900F90DD
:100D000045C086E591E09F938F935F924F920E943A
:100D100012150F900F900F900F9038C08AE591E058
:100D20009F938F935F924F920E9412150F900F9096
:100D30000F900F902BC08EE591E09F938F935F9261
:100D40004F920E9412150F900F900F900F901EC09F
:100D50003F922F925F924F920E9412150F900F9028
:100D60000F900F9013C080E290E00E944E150EC0CD
:100D700080E590E00E944E1509C08EE290E00E944E
:100D80004E1504C088E790E00E944E15FFEFCF1A81
:100D9000DF0A6C147D0409F056CF8AE090E00E94CF
:100DA0004E152FE1620E711C8DE495E086159705B6
:100DB000D9F063019FE1C91AD1080F2EFAE4EF2E92
:100DC000F1E0FF2EF02D06E411E0C2E4D1E00F2E99
:100DD000FEE3AF2EF1E0BF2EF02D0F2EFAE38F2EA3
:100DE000F1E09F2EF02D2FCFC5E1D2E040E050E0A2
:100DF00020E030E0812C912C54018394DE01188294
:100E000019821A821B8280E090E0FC01E20FF31F3E
:100E1000E359FE4FE491EE32D1F44D905D906D9028
:100E20007C90139775016401082E04C0CC0CDD1C66
:100E3000EE1CFF1C0A94D2F7C428D528E628F72810
:100E4000CD92DD92ED92FC9213974F5F5F4F01962A
:100E50008F319105D1F6215E3F4F2496213CE3E08E
:100E60003E0761F650939801409397010F2EF9E9E0
:100E7000CF2EF1E0DF2EF02D00E010E0812C912C40
:100E8000540183947601F60110821182128213823A
:100E9000C0E0D0E0FE01E00FF11FE359FE4FE49106
:100EA000E035D9F4F7014081518162817381D50128
:100EB000C4010C2E04C0880F991FAA1FBB1F0A94DF
:100EC000D2F7842B952BA62BB72BF7018083918328
:100ED000A283B3838EE20E949D122196CF31D10569
:100EE000C9F6015E1F4FF4E0CF0ED11C013C23E098
:100EF000120741F68FE080939E0287E180939D0266
:100F000082E08093B60367E18FE00E9437040F2EE2
:100F1000F9E9AF2EF2E0BF2EF02D0F2EF5E9CF2E1E
:100F2000F2E0DF2EF02D0F2EF1E9EF2EF2E0FF2E92
:100F3000F02DDCE0C0E01FE002E0F501D1935F019D
:100F4000F60111936F01F70101937F01412F6D2F7E
:100F50008C2F0E945904CF5FDE5FC43071F7DF91A0
:100F6000CF911F910F91FF90EF90DF90CF90BF90A6
:100F7000AF909F908F907F906F905F904F903F9039
:100F80002F9008950E94F2050E941B0481E0809337
:100F900094010895823071F01CF4813031F018C052
:100FA000833069F0843081F013C088EC90E00E94B7
:100FB000E80F0EC080E991E00E94E80F09C080E2CE
:100FC00093E00E94E80F04C080E496E00E94E80FDE
:100FD0000E94F40408958FE080939E0297E190931D
:100FE0009D02A9E9B2E09CE09C93E5E9F2E08083F0
:100FF00011969C931197818312969C9312978283EA
:1010000013969C93838308951F93CF93DF938091CE
:101010009401882309F4D9C0D0919D02C0919E0209
:101020004091B6036D2F8C2F0E942F05182F8E3FF5
:1010300009F4CDC06D2F8C2F0E94AD048091B603B2
:1010400081110BC080919E02815019F080939E0205
:101050001EC08EE180939E021AC0823059F48091A6
:101060009E028F5F8E3119F080939E0210C0109205
:101070009E020DC0813031F480919D028150809399
:101080009D0205C080919D028F5F80939D02112378
:101090000CF442C0809196018823F9F0C12F012EF3
:1010A000000CDD0BFE01E756FD4F8CE08083FE0156
:1010B000EB56FD4F8FE08083809195018F5F809389
:1010C00095010E94CA07C45FDE4F188360919D029C
:1010D00080919E020E94370470C08091110181505E
:1010E000809311010E941B0480911101882319F043
:1010F0000E94EB0762C0E12F110FFF0BEC5FFE4F68
:1011000080810E949D1260919D0280919E020E94AA
:1011100037041092940151C01C3F31F58091970122
:1011200090919801019790939801809397018AE09C
:1011300090E00E94E80F0E94F4046AE070E082E30D
:1011400090E00E947A12809198018F93809197018C
:101150008F9386E391E09F938F930E9428150F90C1
:101160000F900F900F9029C01A3F39F5809196018A
:10117000882349F010929501ECE0F1E08FEF808335
:1011800081838283838381E08093960182E390E070
:101190000E94E80F0E94F404E4E0F1E082E2808320
:1011A0008183828383830E94CB126093B703709301
:1011B000B8038093B9039093BA0360919D02809124
:1011C0009E020E94370481E003C080E001C080E0FD
:1011D000DF91CF911F9108951F93CF93DF9390914B
:1011E00094019923A1F0C82F10919D02D0919E02E5
:1011F000482F612F8D2F0E942F058E3F51F0C093F5
:10120000B603612F8D2F0E94370481E003C080E078
:1012100001C080E0DF91CF911F910895DF92EF929E
:10122000FF920F931F93CF93DF9390919401992393
:1012300009F403C2082F082E000C110BF801E45F1B
:10124000FE4F208130E00217130709F4F6C1C82FC2
:1012500090E0FC01E756FD4FF080FC01EB56FD4F9E
:10126000D080FC01EF56FD4FD0816D2D8F2D0E9457
:10127000B505E82E882309F4E0C16D2D8F2D0E945D
:101280000704882309F477C1E1FE75C1C6C1E09067
:101290009E02EF18D0919D02DD196D2D8F2D0E94B9
:1012A000B505882309F4C9C14E2D0E2C000C550B31
:1012B00055231CF45195419551092D2F0D2E000CED
:1012C000330B33231CF43195219531094217530711
:1012D0004CF4DD231CF481FF05C09FC11D1614F4DE
:1012E00083FD6CC1EE2054F480FD78C1DD231CF435
:1012F00081FF60C192C183FD61C15CC182FD7DC17E
:10130000DD231CF481FF46C188C183FD57C142C162
:1013100081E090E0AB01082E02C0559547950A94F4
:10132000E2F740FDA0C001968430910599F785C190
:101330000E2C000CFF088D2F90E097010D2E02C09F
:10134000359527950A94E2F720FD94C0DC0FD37001
:101350002D2F0D2E000C330BA7010D2E02C055951D
:1013600047950A94E2F740FD85C02E5F3F4F2370FA
:101370003078332334F4215031092C6F3F6F2F5FC5
:101380003F4F022E02C0F594E7940A94E2F7E0FC86
:101390006CC09C012E5F3F4F23703078332334F4B0
:1013A000215031092C6F3F6F2F5F3F4FD22F62C00A
:1013B0000E2C000CFF082091B603C701022E02C0BC
:1013C000959587950A94E2F780FF02C0D22F52C00C
:1013D0000E947D14DC01CB0183709927AA27B07885
:1013E000BB2354F40197A109B1098C6F9F6FAF6FB4
:1013F000BF6F0196A11DB11D482F682F880F770B75
:101400009B0123703078332334F4215031092C6F41
:101410003F6F2F5F3F4FC701022E02C09595879502
:101420000A94E2F780FD23C06F5F7F4F042E000C0B
:10143000550B4C5F5F4FCB0183709078992324F458
:1014400001978C6F9F6F0196282FF70102C0F595C9
:10145000E7958A95E2F7E0FD0CC06F5F7F4F641758
:10146000750749F7EAC0D82F05C0D22F03C0D22F85
:1014700001C0D22FDD230CF4E0C0F801EB56FD4F84
:101480006081F801E756FD4F80810E94AD04F801AC
:10149000EF56FD4FD083D130B9F01CF4DD2331F08D
:1014A00020C0D23051F0D330B1F01BC0F801E75664
:1014B000FD4F80818150808314C0F801E756FD4FB5
:1014C00080818F5F80830DC0F801EB56FD4F8081D6
:1014D0008150808306C0F801EB56FD4F80818F5FFD
:1014E0008083F801EB56FD4F4081F801E756FD4F30
:1014F000608180919E02681354C080919D024813C0
:1015000050C053C0F801E756FD4F8CE08083F801CE
:10151000EB56FD4F8FE08083809195018F5F809324
:1015200095010E94CA07F801E45FFE4FC08320C006
:10153000809111018150809311010E941B048091C0
:101540001101882319F00E94EB0712C01092940138
:10155000F801EC5FFE4F80810E949D12D801AB56CE
:10156000BD4FF801E756FD4F6C9180810E94370412
:101570000E948B1262C0C13009F4DACE24F4CC236D
:1015800009F485CE5AC0C23009F412CFC33009F431
:10159000CFCE53C0682F082E000C770B80FFB8CE3B
:1015A0001DC08C2F0E945904E3CF809196018111B8
:1015B000A9CFBECF682F880F770BAACEF801EB56C4
:1015C000FD4F6081F801E756FD4F80810E94AD0418
:1015D00083E0F801EF56FD4F80837DCFF801EB5695
:1015E000FD4F6081F801E756FD4F80810E94AD04F8
:1015F000F801EF56FD4F108259CFF801EB56FD4F21
:101600006081F801E756FD4F80810E94AD0482E0C1
:10161000F801EF56FD4F808350CFF801EB56FD4F98
:101620006081F801E756FD4F80810E94AD0481E0A2
:10163000F801EF56FD4F808347CFDF91CF911F9187
:101640000F91FF90EF90DF90089581E090919401C9
:10165000911180E0089581E02091970130919801E7
:10166000232B09F080E0089580E80E944C12089531
:101670000F931F93CF93DF93803190F48B01C82F8A
:1016800083E00E9474128C2F8F700E947412E80104
:10169000085F1F4F89910E947412C017D107D1F7BC
:1016A000DF91CF911F910F91089584E00E947412F1
:1016B00082E00E94741208958FE00E9474120895CF
:1016C0000E94340B0E947E0340E060E07BE480E0F7
:1016D00090E00E9464110E94B312789408950E94D1
:1016E00094126AE070E08AE090E00E947A1287EB40
:1016F00095E09F938F930E9428156CE070E08AE03C
:1017000090E00E947A1287E895E09F938F930E9461
:1017100028150E945C0B0F900F900F900F906FEDAB
:101720008EE791E00E942D1010C02FE789EA93E028
:10173000215080409040E1F700C000000E948C03DF
:101740008F3F19F00E945C0B08950E943C1081119C
:10175000ECCFE5CF8091A302811106C0ECE7F0E069
:1017600080818E7F808305C0ECE7F0E0808181601E
:101770008083EAE7F0E0808180648083808186FD59
:10178000FDCF20917800309179003093CC032093E5
:10179000CB039091A302911105C03093CA0320930B
:1017A000C90304C03093C6032093C50381E0892791
:1017B0008093A30208950E94C2070E94DF0F0E9437
:1017C000AA0B0E94AA0B0E948C030E94B2110895DA
:1017D00010921C012091C3033091C4038091C9036E
:1017E0009091CA038217930770F442E06091A803B6
:1017F0008091A9030E942F058E3F09F43FC082E02B
:101800000E94EC0808952817390768F440E06091B9
:10181000A8038091A9030E942F058E3F79F180E0F3
:101820000E94EC0808952091C7033091C80380916D
:10183000C5039091C6038217930768F441E0609155
:10184000A8038091A9030E942F058E3FB9F082E082
:101850000E94EC0808952817390768F443E0609166
:10186000A8038091A9030E942F058E3F39F083E0E1
:101870000E94EC08089581E080931C01089561E0C6
:1018800084E191E00E940A186091A90370E082E16E
:1018900091E00E9428186091A80370E080E191E037
:1018A0000E9428186091B6038FE091E00E940A1808
:1018B0006091110186E091E00E940A186091960102
:1018C00085E091E00E940A1860919F0284E091E017
:1018D0000E940A184091BB035091BC036091BD0364
:1018E0007091BE038BE091E00E941C184091BF03F1
:1018F0005091C0036091C1037091C20387E091E0F1
:101900000E941C1844E050E060E071E084EA93E03B
:101910000E942E1844E050E06CEF70E080EA93E003
:101920000E942E1844E050E068EF70E08CE993E0EC
:101930000E942E184FE150E06CE770E080E293E0E7
:101940000E942E184FE150E060E070E084EA92E0DF
:101950000E942E18089584E191E00E94F6178130CC
:1019600009F06DC082E191E00E9404188093A90300
:1019700080E191E00E9404188093A8038FE091E039
:101980000E94F6178093B60386E091E00E94F61756
:101990008093110185E091E00E94F61780939601F3
:1019A00084E091E00E94F61790E0A0E0B0E0809320
:1019B0009F029093A002A093A102B093A2028BE099
:1019C00091E00E94FE176093BB037093BC03809369
:1019D000BD039093BE0387E091E00E94FE176093E1
:1019E000BF037093C0038093C1039093C20344E08C
:1019F00050E060E071E084EA93E00E94E61744E082
:101A000050E06CEF70E080EA93E00E94E61744E05B
:101A100050E068EF70E08CE993E00E94E6174FE138
:101A200050E06CE770E080E293E00E94E6174FE13F
:101A300050E060E070E084EA92E00E94E6170895CA
:101A40000E94AB11882309F18091E1049091E20496
:101A50000E94D4148B31C9F08F7D803591F08E3483
:101A600021F40E94DB0B81E00895833521F40E946C
:101A70003F0C81E008958F3431F40E94AB0C81E07B
:101A8000089580E0089581E0089581E00895E82FA9
:101A9000F0E0EE5EFE4F80819BB1282F2F70922BDD
:101AA0009BB998B1807F892B88B98BB1660F660F7F
:101AB000660F682B6BB908956AE070E083E290E0EE
:101AC0000E947A1288E795E09F938F930E942815D1
:101AD0006BE070E083E290E00E947A1287E595E087
:101AE0009F938F930E9428150E94B2110F900F9020
:101AF0000F900F900E948C038F3F21F40E94AB1136
:101B00008823C1F30E94B21108952F923F924F9201
:101B10005F926F927F928F929F92AF92BF92CF927D
:101B2000DF92EF92FF920F931F93CF93DF93CDB786
:101B3000DEB72D970FB6F894DEBF0FBECDBF0E9463
:101B4000CB126B017C012B013C0169877A878B8763
:101B50009C876D837E838F83988769837A838B8349
:101B60009C834B015C011D86212C332433940FEFA1
:101B7000BBC10E940F1080919601882309F46EC0AA
:101B80008091B7039091B803A091B903B091BA03C3
:101B90000F96A11DB11D8C159D05AE05BF0528F53D
:101BA00010929601E8E0F1E08081E4E0F1E08083CA
:101BB000809109018093050180910A0180930601BB
:101BC00080910B01809307011092950110929F0262
:101BD0001092A0021092A1021092A20288B18F70FE
:101BE00088B98BB1807F8BB939C0BC01CD016C192C
:101BF0007D098E099F090E9444130E94FE120E94D3
:101C0000151360939F027093A0028093A10290939A
:101C1000A2022AE030E040E050E00E94EB13162FD1
:101C2000CA01B9012AE030E040E050E00E94EB1325
:101C3000862F611106C060E0812F0E94470D212C84
:101C40000DC0211005C060E0812F0E94470D03C028
:101C5000622D0E94470DF32DF2192F2E0E948C0346
:101C6000182F8091A302811106C0ECE7F0E080817B
:101C70008E7F808305C0ECE7F0E080818160808307
:101C8000EAE7F0E0808180648083EAE7F0E0808129
:101C900086FDFBCFE8E7F0E0208131813093CC0373
:101CA0002093CB038091A302811105C03093C4031C
:101CB0002093C30304C03093C8032093C703832534
:101CC0008093A3020E94E80B1F3F09F018C10E94F5
:101CD000AB11882309F47AC0E1EEF4E080819181B0
:101CE0000E94D414FD85F11105C08B3109F402C1A5
:101CF000902F0DC09D85913029F48B3509F4FCC0DF
:101D0000902F05C0ED85E230B9F5982F802F9434DF
:101D100079F41D8602C0902F802F20911C01222370
:101D200021F080E00E94EC0851C0123011F4EDC0A7
:101D30001D86913441F420911C01222321F0832D32
:101D40000E94EC0843C0113011F0923449F4209104
:101D50001C01222309F4DFC083E00E94EC0836C096
:101D6000112311F0933449F490911C01992329F027
:101D700082E00E94EC082AC01D868F7D8E3419F403
:101D80000E94DB0B23C08035C1F40E94200D182F68
:101D90000E94CB124B015C011111F7CF2B013C01CA
:101DA00069877A878B879C876D837E838F839887EB
:101DB00069837A838B839C8309C0833519F40E94DD
:101DC0003F0C04C08F3411F40E94AB0C0E94CB1264
:101DD0006B017C010E94250B81112AC0D501C40131
:101DE00080579E4FAF4FBF4FC816D906EA06FB0675
:101DF000F8F00E9404080E942B0B8823B9F00E947F
:101E00005C0D0E94F2050E94CB124B015C012B017C
:101E10003C0169877A878B879C876D837E838F835C
:101E2000988769837A838B839C8302C0460157011C
:101E30000E94250B811114C089819A81AB81BC81DC
:101E400080579E4FAF4FBF4FC816D906EA06FB0614
:101E500038F080E00E940E09C982DA82EB82FC82AF
:101E60000E94250B811114C08D819E81AF81B885A0
:101E70008C509E4FAF4FBF4FC816D906EA06FB06DF
:101E800038F0832D0E940E09CD82DE82EF82F88623
:101E90000E94250B811114C089859A85AB85BC856C
:101EA0008A5D9D4FAF4FBF4FC816D906EA06FB06A5
:101EB00038F082E00E940E09C986DA86EB86FC863D
:101EC0000E94250B811110C0D301C201885A9D4F79
:101ED000AF4FBF4FC816D906EA06FB0628F083E0CD
:101EE0000E940E09260137010E94250B882309F460
:101EF00040CE1AC03D866ACFF2E0FD8767CF13302F
:101F000009F409CF0CC0902F802F20911C012223AF
:101F100009F41BCF14CF112309F42FCF23CF123094
:101F200091F3902F802F0FCF2D960FB6F894DEBF30
:101F30000FBECDBFDF91CF911F910F91FF90EF901A
:101F4000DF90CF90BF90AF909F908F907F906F90D9
:101F50005F904F903F902F9008956EE070E083E285
:101F600090E00E947A128DE495E09F938F930E94F7
:101F7000281560E170E083E290E00E947A128FE21F
:101F800095E09F938F930E9428150F900F900F90CC
:101F90000F900E948C038F3FE1F30E94DB0B0895AA
:101FA0000E94600B0E946F0B8FEF87B980EF81B9A1
:101FB0000E94DB0B0E94850D0E94AD0FF9CF10929D
:101FC000BB031092BC031092BD031092BE03089590
:101FD0004091BB035091BC036091BD037091BE035F
:101FE000480F591F611D711D4093BB035093BC03E3
:101FF0006093BD037093BE0308956091BB0370911D
:10200000BC038091BD039091BE0308956091BF030E
:102010007091C0038091C1039091C2030895809193
:10202000BB039091BC03A091BD03B091BE0340914E
:10203000BF035091C0036091C1037091C203481760
:1020400059076A077B0740F48093BF039093C0034E
:10205000A093C103B093C203089560931D019093B0
:10206000AE038093AD031092B0031092AF031092B1
:10207000AC031092AB0308950F931F93CF93DF939C
:10208000CDB7DEB728970FB6F894DEBF0FBECDBF31
:10209000E091AF03F091B003309781F0149110FFFD
:1020A00006C01092B0031092AF0300E06BC03196EF
:1020B000F093B003E093AF0300E064C0E091AB03A2
:1020C000F091AC03309709F449C0CF010196909389
:1020D000AC038093AB03E081E1110AC01092AC0322
:1020E0001092AB0380E18093AA0300E010E04AC0A5
:1020F0008FE98E0F8A3170F4F0E0EE0FFF1FEF5E74
:10210000FA4F859194919093B0038093AF0300E0D0
:1021100010E038C08FEB8E0F8A3170F4F0E0EE0FD4
:10212000FF1FEF5AFA4F859194919093B0038093DB
:10213000AF0300E010E026C080ED8E0F8A3000F57E
:10214000F0E0EE0FFF1FE15AFA4F859194919093C2
:10215000B0038093AF0300E010E014C08091AD03A2
:102160009091AE0301E0009709F000E09093AC037A
:102170008093AB031092AE031092AD0310E002C047
:1021800000E010E00E94550B20911D01FE013896E1
:10219000CE010196112314F4208301C01082110F87
:1021A0003197E817F907B1F71982BE016F5F7F4FCA
:1021B0008FE00E94380B8091AA03882389F0815018
:1021C0008093AA03002311F0882311F090E003C04C
:1021D00091E001C091E081E0992329F080E003C003
:1021E0000023A1F3F7CF28960FB6F894DEBF0FBEF9
:1021F000CDBFDF91CF911F910F910895CF93C82F3D
:102200008A3019F48DE00E94FE109FB7907802C0CA
:10221000992329F18091CE038F3FD1F3F894E09177
:10222000CD0381E08E0F8093CD03F0E0E153FC4FAE
:10223000C0838091CE038F5F8093CE038091CD03C6
:102240008F3F11F41092CD03E1ECF0E080818062C9
:102250008083992339F0789480E090E005C081E094
:1022600090E002C080E090E0CF9108958091E0047A
:102270008823E1F32FB72078F8948091CE04309131
:10228000E00490E0831B91095AF4E091CE04809120
:10229000E004F0E0E81BF109E152FB4F80810AC045
:1022A000E091CE048091E004F0E0E81BF109E153F5
:1022B000FB4F80819091E00491509093E0042223A1
:1022C00009F0789490E008951092CD031092CE0317
:1022D0001092CE041092E0041092DF044093B103F8
:1022E000DC01CB01880F991FAA1FBB1F880F991F04
:1022F000AA1FBB1F9C01AD01220F331F441F551F96
:1023000060E072E18AE790E00E940D14BA01A90131
:102310004F5F5F4F6F4F7F4FDB01CA011AF4019689
:10232000A11DB11DB595A795979587950197909398
:10233000C5008093C400E1ECF0E088E180838081F7
:1023400080688083E1EEF4E08EE191E09383828304
:102350009183808308959091E00481E0911101C000
:1023600080E008951092CE041092E00408951F9228
:102370000F920FB60F9211242F938F939F93EF9389
:10238000FF938091CE03882329F18091CD03209182
:10239000CE0390E0821B91095AF4E091CD03809125
:1023A000CE03F0E0E81BF109E253FB4F90810AC035
:1023B000E091CD038091CE03F0E0E81BF109E153F9
:1023C000FC4F90818091CE0381508093CE039093F7
:1023D000C60005C0E1ECF0E080818F7D8083FF9135
:1023E000EF919F918F912F910F900FBE0F901F90A3
:1023F00018951F920F920FB60F9211242F933F93AF
:102400004F935F936F937F938F939F93AF93BF93FC
:10241000CF93EF93FF93C091C6008091B1038823BF
:1024200049F08091CE038F3F29F060E070E08C2F5F
:102430000E94FE108091E004803120F081E08093C2
:10244000DF0418C0CD3009F4CAE0E091CE0481E089
:102450008E0F8093CE04F0E0E153FB4FC083809158
:10246000E0048F5F8093E0048091CE04803111F40A
:102470001092CE04FF91EF91CF91BF91AF919F91B8
:102480008F917F916F915F914F913F912F910F901D
:102490000FBE0F901F90189594B1906B94B92C9A21
:1024A00090E59CBD883021F0803211F0823019F423
:1024B00091E09DBD01C01DBC803269F028F48830D8
:1024C00071F0803161F00EC0803429F0803851F411
:1024D0008CB581608CBD8CB582608CBD03C08CB521
:1024E00081608CBD2C9808958EBD0DB407FEFDCF84
:1024F0008EB508959F938F937F936F9384EB96E0AF
:102500009F938F930E9428150F900F900F900F901C
:102510000F900F9008958FEA96E09F938F930E94FB
:1025200028150F900F9008958AEA96E09F938F9355
:102530000E9428150F900F9008951F928F9384EAA0
:1025400096E09F938F930E9428150F900F900F9005
:102550000F9008958DE996E09F938F930E94281520
:102560000F900F9008951092B2031092B30310923F
:10257000B4031092B50316BC8CE787BD82E084BD1E
:1025800083E085BDEEE6F0E080818260808385B3E4
:10259000827085BB08952FB7F8946091B203709153
:1025A000B3038091B4039091B50322230CF4789483
:1025B00008951F920F920FB60F9211248F939F933D
:1025C000AF93BF938091B2039091B303A091B403F2
:1025D000B091B5030196A11DB11D8093B2039093F4
:1025E000B303A093B403B093B503BF91AF919F9190
:1025F0008F910F900FBE0F901F9018950E94CC13D3
:1026000090F09F3748F4911116F40C94E51360E0B4
:1026100070E080E89FE3089526F01B16611D711D90
:10262000811D0C9481130C949C130E94B21388F0AA
:102630009F5798F0B92F9927B751B0F0E1F0660F86
:10264000771F881F991F1AF0BA95C9F714C0B130C7
:1026500091F00E94E413B1E008950C94E413672F05
:10266000782F8827B85F39F0B93FCCF386957795F6
:102670006795B395D9F73EF49095809570956195DF
:102680007F4F8F4F9F4F0895E89409C097FB3EF40A
:1026900090958095709561957F4F8F4F9F4F9923AF
:1026A000A9F0F92F96E9BB279395F695879577952D
:1026B0006795B795F111F8CFFAF4BB0F11F460FFED
:1026C0001BC06F5F7F4F8F4F9F4F16C0882311F045
:1026D00096E911C0772321F09EE8872F762F05C059
:1026E000662371F096E8862F70E060E02AF09A95F4
:1026F000660F771F881FDAF7880F9695879597F9E9
:102700000895882371F4772321F09850872B762F32
:1027100007C0662311F499270DC09051862B70E0F5
:1027200060E02AF09A95660F771F881FDAF7880F06
:102730009695879597F908959F3F31F0915020F431
:10274000879577956795B795880F911D969587958D
:1027500097F9089557FD9058440F551F59F05F3F62
:1027600071F04795880F97FB991F61F09F3F79F0B3
:1027700087950895121613061406551FF2CF469535
:10278000F1DF08C0161617061806991FF1CF8695B7
:1027900071056105089408950E94B213A0F0BEE788
:1027A000B91788F4BB279F3860F41616B11D672F40
:1027B000782F8827985FF7CF869577956795B11D15
:1027C00093959639C8F30895E894BB276627772731
:1027D000CB0197F90895A1E21A2EAA1BBB1BFD019C
:1027E0000DC0AA1FBB1FEE1FFF1FA217B307E407F0
:1027F000F50720F0A21BB30BE40BF50B661F771F48
:10280000881F991F1A9469F7609570958095909527
:102810009B01AC01BD01CF010895052E97FB1EF46D
:1028200000940E94241457FD07D00E94EB1307FC6C
:1028300003D04EF40C942414509540953095219576
:102840003F4F4F4F5F4F08959095809570956195DC
:102850007F4F8F4F9F4F0895EE0FFF1F0590F4910C
:10286000E02D09948F929F92AF92BF92CF92DF9208
:10287000EF92FF92CF93DF93EC01688179818A8197
:102880009B81611571058105910521F464E279ED63
:102890008BE597E02DE133EF41E050E00E940D140D
:1028A00049015A019B01AC01A7EAB1E40E94461814
:1028B0006B017C01ACEEB4EFA50194010E945418A9
:1028C000DC01CB018C0D9D1DAE1DBF1DB7FF03C0EC
:1028D0000197A109B04888839983AA83BB83BC016F
:1028E000CD019F77DF91CF91FF90EF90DF90CF9058
:1028F000BF90AF909F908F9008958F929F92AF92CC
:10290000BF92CF92DF92EF92FF926091000170919F
:10291000010180910201909103016115710581050A
:10292000910521F464E279ED8BE597E02DE133EF39
:1029300041E050E00E940D1449015A019B01AC0195
:10294000A7EAB1E40E9446186B017C01ACEEB4EF3B
:10295000A50194010E945418DC01CB018C0D9D1D32
:10296000AE1DBF1DB7FF03C00197A109B0488093FA
:10297000000190930101A0930201B0930301BC01F7
:10298000CD019F77FF90EF90DF90CF90BF90AF90F9
:102990009F908F9008956093000170930101809340
:1029A0000201909303010895CF93DF93EC012B81F3
:1029B00020FF33C026FF0AC02F7B2B838E819F818F
:1029C00001969F838E838A8190E029C022FF0FC0E9
:1029D000E881F9818081082E000C990B009719F489
:1029E00020622B831AC03196F983E8830EC0EA85F2
:1029F000FB85099597FF09C02B81019611F080E2B4
:102A000001C080E1822B8B8308C02E813F812F5F24
:102A10003F4F3F832E83992702C08FEF9FEFDF91B7
:102A2000CF910895A0E0B0E0E8E1F5E10C946918D9
:102A3000AE014B5F5F4FFA0161917191AF018091DF
:102A4000E3049091E4040E945515E2E00C9485188B
:102A5000A0E0B0E0EEE2F5E10C946718AE01495F4A
:102A60005F4FDA016D917D91AD0101EE14E0F80147
:102A700082819381DC0113962C9113972860139621
:102A80002C930E945515D8011296ED91FC91139745
:102A90002381277F2383E4E00C9483186091E3046F
:102AA0007091E4040E944C170895ABE0B0E0EBE5B0
:102AB000F5E10C9459186C017B018A01FC01178225
:102AC0001682838181FFCCC1CE0101963C01F601C3
:102AD0009381F70193FD859193FF81917F01882375
:102AE00009F4BAC1853239F493FD859193FF819140
:102AF0007F01853229F4B60190E00E944C17E7CFA0
:102B0000912C212C312CFFE1F315D8F08B3279F088
:102B100038F4803279F08332A1F4232D20611DC076
:102B20008D3261F0803369F4232D216016C0832D2E
:102B30008260382EE32DE4603E2E2AC0F32DF8602B
:102B40001DC037FC2DC020ED280F2A3040F08E32FA
:102B5000B9F436FC81C1232D2064322E19C036FE13
:102B600006C08AE0989E200D1124922E11C0EAE042
:102B70002E9E200D1124222EF32DF0623F2E08C030
:102B80008C3621F4832D8068382E02C0883641F4BB
:102B9000F70193FD859193FF81917F018111B3CF5F
:102BA000982F9F7D9554933028F40C5F1F4F9FE31F
:102BB00099830DC0833631F0833771F0833509F086
:102BC00059C021C0F801808189830E5F1F4F88247E
:102BD0008394912C530113C02801F2E04F0E511C35
:102BE000F801A080B18036FE03C0692D70E002C0FC
:102BF0006FEF7FEFC5010E9441174C018201F32D59
:102C0000FF773F2E16C0280122E0420E511CF8012A
:102C1000A080B18036FE03C0692D70E002C06FEF66
:102C20007FEFC5010E9436174C01F32DF0683F2E4F
:102C3000820133FC1BC0822D90E088169906B0F407
:102C4000B60180E290E00E944C172A94F4CFF5017F
:102C500037FC859137FE81915F01B60190E00E94BB
:102C60004C1721102A9421E0821A910881149104B2
:102C700071F7E8C0843611F0893641F5F80137FE66
:102C800007C060817181828193810C5F1F4F08C0F2
:102C900060817181072E000C880B990B0E5F1F4F0E
:102CA000F32DFF763F2E97FF09C090958095709584
:102CB00061957F4F8F4F9F4FF0683F2E2AE030E0A5
:102CC000A3010E948817882E861845C0853731F4E5
:102CD000232D2F7EB22E2AE030E025C0932D997F40
:102CE000B92E8F36C1F018F4883579F0B5C0803729
:102CF00019F0883721F0B0C0E92FE061BE2EB4FE94
:102D00000DC0FB2DF460BF2E09C034FE0AC0292F70
:102D10002660B22E06C028E030E005C020E130E099
:102D200002C020E132E0F801B7FE07C06081718186
:102D3000828193810C5F1F4F06C06081718180E0AA
:102D400090E00E5F1F4FA3010E948817882E8618FF
:102D5000FB2DFF773F2E36FE0DC0232D2E7FA22E9A
:102D6000891458F434FE0BC032FC09C0832D8E7ECA
:102D7000A82E05C0B82CA32C03C0B82C01C0B92CB8
:102D8000A4FE0FC0FE01E80DF11D8081803321F407
:102D90009A2D997EA92E09C0A2FE06C0B394B394C1
:102DA00004C08A2D867809F0B394A3FC11C0A0FE5C
:102DB00006C0B21488F4280C922C9B180EC0B214D2
:102DC00060F4B60180E290E00E944C17B394F7CF14
:102DD000B21418F42B1802C0982C212CA4FE10C099
:102DE000B60180E390E00E944C17A2FE17C0A1FC40
:102DF00003C088E790E002C088E590E0B6010CC00F
:102E00008A2D867859F0A1FE02C08BE201C080E2D3
:102E1000A7FC8DE2B60190E00E944C17891438F4AB
:102E2000B60180E390E00E944C179A94F7CF8A9401
:102E3000F301E80DF11D8081B60190E00E944C176E
:102E40008110F5CF222009F442CEB60180E290E055
:102E50000E944C172A94F6CFF6018681978102C012
:102E60008FEF9FEF2B96E2E10C947518FC01059013
:102E7000615070400110D8F7809590958E0F9F1F7C
:102E80000895FC016150704001900110D8F78095C1
:102E900090958E0F9F1F08950F931F93CF93DF93ED
:102EA000FB01238121FD03C08FEF9FEF2CC022FF88
:102EB00016C046815781248135814217530744F457
:102EC000A081B1819D012F5F3F4F318320838C937F
:102ED000268137812F5F3F4F3783268314C08B01B4
:102EE000EC01FB010084F185E02D0995892BE1F6C9
:102EF000D80116968D919C911797019617969C93E1
:102F00008E931697CE01DF91CF911F910F91089567
:102F1000FA01AA27283051F1203181F1E8946F930A
:102F20006E7F6E5F7F4F8F4F9F4FAF4FB1E03ED0B0
:102F3000B4E03CD0670F781F891F9A1FA11D680F4E
:102F4000791F8A1F911DA11D6A0F711D811D911D81
:102F5000A11D20D009F468943F912AE0269F1124F6
:102F60003019305D3193DEF6CF010895462F47705A
:102F7000405D4193B3E00FD0C9F7F6CF462F4F70B5
:102F8000405D4A3318F0495D31FD4052419302D013
:102F9000A9F7EACFB4E0A6959795879577956795B9
:102FA000BA95C9F700976105710508959B01AC01B9
:102FB0000A2E06945795479537952795BA95C9F7E0
:102FC000620F731F841F951FA01D0895DC01CB01A4
:102FD000FC01F999FECF06C0F2BDE1BDF89A319629
:102FE00000B40D9241505040B8F70895F999FECFC2
:102FF00092BD81BDF89A992780B50895A6E1B0E009
:1030000044E050E00C94E817A8E1B0E042E050E062
:103010000C94E817262FF999FECF92BD81BDF89A3E
:10302000019700B4021639F01FBA20BD0FB6F8940C
:10303000FA9AF99A0FBE08950396272F0E940B184B
:103040000E940A18252F0E940B18242F0C940B188D
:103050000196272F0E940B180C940A18DC01CB0153
:1030600003C02D910E94391841505040D0F7089567
:10307000262FF999FECF1FBA92BD81BD20BD0FB694
:10308000F894FA9AF99A0FBE019608950E94901842
:10309000A59F900DB49F900DA49F800D911D1124AC
:1030A0000895B7FF0C9446180E944618821B930B94
:1030B00008952F923F924F925F926F927F928F92DC
:1030C0009F92AF92BF92CF92DF92EF92FF920F93B7
:1030D0001F93CF93DF93CDB7DEB7CA1BDB0B0FB6C1
:1030E000F894DEBF0FBECDBF09942A88398848887E
:1030F0005F846E847D848C849B84AA84B984C88414
:10310000DF80EE80FD800C811B81AA81B981CE0F0A
:10311000D11D0FB6F894DEBF0FBECDBFED010895EF
:10312000A29FB001B39FC001A39F700D811D112408
:10313000911DB29F700D811D1124911D0895F89469
:02314000FFCFBF
:1031420001000000292A2E2D292A2E2DFFFFFFFF24
:1031520007033F065B4F666D7D077F6F010F00001F
:10316200000300000000FE10361100002573004825
:103172006967682053636F726500E2948000E2948D
:103182008200E2948C00E2949000E2949400E29433
:103192009800E2949C00E294A400E294B400E294C9
:1031A200AC00E294BC00E197A400E197A200E19791
:1031B200A700E197A30066016A016E017201504106
:0E31C200434D414E203435383230333834001E
:00000001FF
